:020000040000FA
:100000000128831203138501880183168501880165
:100010000317880183120313013088001630A300F0
:10002000880D3820A30B10281630A300880C382028
:10003000A30B1628F03088001630A300880E382055
:10004000A30B1E28863088000030A40024082E2030
:1000500088003820A40A081C26280E288207863427
:100060004C34383430346834C434823401340800B9
:10007000D030A000D030A100A10B3C28A00B3A2822
:02008000080076
:040082000034003412
:02400E00D528B3
:02401000FF3F70
:00000001FF
